{
  "contractName": "FeEx",
  "abi": [
    {
      "constant": true,
      "inputs": [
        {
          "name": "",
          "type": "address"
        },
        {
          "name": "",
          "type": "address"
        }
      ],
      "name": "FeExInfo",
      "outputs": [
        {
          "name": "expValue",
          "type": "uint256"
        },
        {
          "name": "prev_expValue",
          "type": "uint256"
        },
        {
          "name": "perCount",
          "type": "uint256"
        }
      ],
      "payable": false,
      "stateMutability": "view",
      "type": "function"
    },
    {
      "anonymous": false,
      "inputs": [
        {
          "indexed": false,
          "name": "_trustor",
          "type": "address"
        },
        {
          "indexed": false,
          "name": "_trustee",
          "type": "address"
        }
      ],
      "name": "enFeedbackEvent",
      "type": "event"
    },
    {
      "anonymous": false,
      "inputs": [
        {
          "indexed": false,
          "name": "_trustor",
          "type": "address"
        },
        {
          "indexed": false,
          "name": "_trustee",
          "type": "address"
        },
        {
          "indexed": false,
          "name": "expValue",
          "type": "uint256"
        }
      ],
      "name": "expCalculationEvent",
      "type": "event"
    },
    {
      "constant": false,
      "inputs": [
        {
          "name": "_trustor",
          "type": "address"
        },
        {
          "name": "_trustee",
          "type": "address"
        },
        {
          "name": "_fbscore",
          "type": "uint8"
        }
      ],
      "name": "expCalculation",
      "outputs": [],
      "payable": false,
      "stateMutability": "nonpayable",
      "type": "function"
    }
  ],
  "bytecode": "0x608060405234801561001057600080fd5b50610bf9806100206000396000f3fe608060405260043610610046576000357c010000000000000000000000000000000000000000000000000000000090048063d015e6871461004b578063f6cac7d2146100de575b600080fd5b34801561005757600080fd5b506100ba6004803603604081101561006e57600080fd5b81019080803573ffffffffffffffffffffffffffffffffffffffff169060200190929190803573ffffffffffffffffffffffffffffffffffffffff16906020019092919050505061015c565b60405180848152602001838152602001828152602001935050505060405180910390f35b3480156100ea57600080fd5b5061015a6004803603606081101561010157600080fd5b81019080803573ffffffffffffffffffffffffffffffffffffffff169060200190929190803573ffffffffffffffffffffffffffffffffffffffff169060200190929190803560ff169060200190929190505050610193565b005b6000602052816000526040600020602052806000526040600020600091509150508060000154908060010154908060020154905083565b8273ffffffffffffffffffffffffffffffffffffffff163373ffffffffffffffffffffffffffffffffffffffff161415156101cd57600080fd5b60008060008573ffffffffffffffffffffffffffffffffffffffff1673ffffffffffffffffffffffffffffffffffffffff16815260200190815260200160002060008473ffffffffffffffffffffffffffffffffffffffff1673ffffffffffffffffffffffffffffffffffffffff1681526020019081526020016000206002015411151561025a57600080fd5b60006102bc8260ff1610151561051c576000808573ffffffffffffffffffffffffffffffffffffffff1673ffffffffffffffffffffffffffffffffffffffff16815260200190815260200160002060008473ffffffffffffffffffffffffffffffffffffffff1673ffffffffffffffffffffffffffffffffffffffff1681526020019081526020016000206000015462100000036104006110008460ff160261ffff1681151561030657fe5b0461ffff1681151561031457fe5b046000808673ffffffffffffffffffffffffffffffffffffffff1673ffffffffffffffffffffffffffffffffffffffff16815260200190815260200160002060008573ffffffffffffffffffffffffffffffffffffffff1673ffffffffffffffffffffffffffffffffffffffff168152602001908152602001600020600001540190506000808573ffffffffffffffffffffffffffffffffffffffff1673ffffffffffffffffffffffffffffffffffffffff16815260200190815260200160002060008473ffffffffffffffffffffffffffffffffffffffff1673ffffffffffffffffffffffffffffffffffffffff168152602001908152602001600020600001546000808673ffffffffffffffffffffffffffffffffffffffff1673ffffffffffffffffffffffffffffffffffffffff16815260200190815260200160002060008573ffffffffffffffffffffffffffffffffffffffff1673ffffffffffffffffffffffffffffffffffffffff16815260200190815260200160002060010181905550806000808673ffffffffffffffffffffffffffffffffffffffff1673ffffffffffffffffffffffffffffffffffffffff16815260200190815260200160002060008573ffffffffffffffffffffffffffffffffffffffff1673ffffffffffffffffffffffffffffffffffffffff168152602001908152602001600020600001819055505b6102008260ff161115156107e0576000808573ffffffffffffffffffffffffffffffffffffffff1673ffffffffffffffffffffffffffffffffffffffff16815260200190815260200160002060008473ffffffffffffffffffffffffffffffffffffffff1673ffffffffffffffffffffffffffffffffffffffff1681526020019081526020016000206000015462100000036104006110008460ff16610400030261ffff168115156105ca57fe5b0461ffff168115156105d857fe5b046000808673ffffffffffffffffffffffffffffffffffffffff1673ffffffffffffffffffffffffffffffffffffffff16815260200190815260200160002060008573ffffffffffffffffffffffffffffffffffffffff1673ffffffffffffffffffffffffffffffffffffffff168152602001908152602001600020600001540390506000808573ffffffffffffffffffffffffffffffffffffffff1673ffffffffffffffffffffffffffffffffffffffff16815260200190815260200160002060008473ffffffffffffffffffffffffffffffffffffffff1673ffffffffffffffffffffffffffffffffffffffff168152602001908152602001600020600001546000808673ffffffffffffffffffffffffffffffffffffffff1673ffffffffffffffffffffffffffffffffffffffff16815260200190815260200160002060008573ffffffffffffffffffffffffffffffffffffffff1673ffffffffffffffffffffffffffffffffffffffff16815260200190815260200160002060010181905550806000808673ffffffffffffffffffffffffffffffffffffffff1673ffffffffffffffffffffffffffffffffffffffff16815260200190815260200160002060008573ffffffffffffffffffffffffffffffffffffffff1673ffffffffffffffffffffffffffffffffffffffff168152602001908152602001600020600001819055505b6102008260ff161180156107f857506102bc8260ff16105b15610a9957621000006000808673ffffffffffffffffffffffffffffffffffffffff1673ffffffffffffffffffffffffffffffffffffffff16815260200190815260200160002060008573ffffffffffffffffffffffffffffffffffffffff1673ffffffffffffffffffffffffffffffffffffffff168152602001908152602001600020600101546104000281151561088d57fe5b04610400036000808673ffffffffffffffffffffffffffffffffffffffff1673ffffffffffffffffffffffffffffffffffffffff16815260200190815260200160002060008573ffffffffffffffffffffffffffffffffffffffff1673ffffffffffffffffffffffffffffffffffffffff168152602001908152602001600020600001540390506000808573ffffffffffffffffffffffffffffffffffffffff1673ffffffffffffffffffffffffffffffffffffffff16815260200190815260200160002060008473ffffffffffffffffffffffffffffffffffffffff1673ffffffffffffffffffffffffffffffffffffffff168152602001908152602001600020600001546000808673ffffffffffffffffffffffffffffffffffffffff1673ffffffffffffffffffffffffffffffffffffffff16815260200190815260200160002060008573ffffffffffffffffffffffffffffffffffffffff1673ffffffffffffffffffffffffffffffffffffffff16815260200190815260200160002060010181905550806000808673ffffffffffffffffffffffffffffffffffffffff1673ffffffffffffffffffffffffffffffffffffffff16815260200190815260200160002060008573ffffffffffffffffffffffffffffffffffffffff1673ffffffffffffffffffffffffffffffffffffffff168152602001908152602001600020600001819055505b6000808573ffffffffffffffffffffffffffffffffffffffff1673ffffffffffffffffffffffffffffffffffffffff16815260200190815260200160002060008473ffffffffffffffffffffffffffffffffffffffff1673ffffffffffffffffffffffffffffffffffffffff16815260200190815260200160002060020160008154809291906001900391905055507f207170214763f6c2c61bbfd0383b1c2488bd0c3e4f4dcaa70ce58aa3f9ecde16848483604051808473ffffffffffffffffffffffffffffffffffffffff1673ffffffffffffffffffffffffffffffffffffffff1681526020018373ffffffffffffffffffffffffffffffffffffffff1673ffffffffffffffffffffffffffffffffffffffff168152602001828152602001935050505060405180910390a15050505056fea165627a7a72305820b861fffc5702531db3c77a1f0cadea7b004bf243262d20664b2311bb07b71f3d0029",
  "source": "pragma solidity >= 0.4.22 < 0.9.0;\n\ncontract FeEx {\n\t// For convenience of the demo, some default values are set as follows:\n\t// _fbscore is set as uint between 1 and 1024\n\t// default expValue is 32768 (2^15)\n\t// maximum exp value is 1048576 (2^20)\n\t// alpha = 2^12 = 4096\n\n\tstruct FeExStrut {\n    \tuint expValue;\n\t\tuint prev_expValue;\n\t\tuint perCount; // counter indicating the number of times a trustor can give feedback toward a trustee\n\t}\n\n\t// public ledger storing related information about Experience and Feedback permission\n\tmapping (address => mapping (address => FeExStrut)) public FeExInfo;\n    \n    // enable feedback for trustor toward the trustee event\n    event enFeedbackEvent (\n\t\taddress _trustor,\n\t\taddress _trustee\n    );\n\n\tevent expCalculationEvent (\n\t\taddress _trustor,\n\t\taddress _trustee,\n\t\tuint expValue\n    );\n\n\t// function to enable feedback for trustor toward the trustee\n\tfunction enFeedback (address _trustor, address _trustee ) internal { //can only be called in this SC or in derived SCs\n\t\trequire(msg.sender == _trustor);\n\n\t\tif (FeExInfo[_trustor][_trustee].expValue > 0) { //the Exp between two entities has already initialized.\n\t\t\tFeExInfo[_trustor][_trustee].perCount++;\n\t\t} else { //first transaction betweeh the two, initialize the FeExInfo\n\t\t\t// default expValue, pre_expValue are 1024\n\t\t\tFeExInfo[_trustor][_trustee] = FeExStrut(32768, 32768, 1);\n\t\t}\n\t\temit enFeedbackEvent(_trustor, _trustee);\n  \t}\n\n\t// submit feedback and calculate the Experience relationship accordingly\n\tfunction expCalculation (address _trustor, address _trustee, uint8 _fbscore ) public {\t\n\t\trequire(msg.sender == _trustor);\n\t\trequire(FeExInfo[_trustor][_trustee].perCount > 0); //trustor is allowed to give feedback toward trustee\n\t\t// for convenience, _fbscore is set as uint between 1 and 16\n\n\t\tuint updatedExpValue;\n\n\t\tif (_fbscore >= 700) { // cooperative feedback\n\t\t\t// increase model\n\t\t\tupdatedExpValue = FeExInfo[_trustor][_trustee].expValue + ((_fbscore*4096)/1024)/(1048576 - FeExInfo[_trustor][_trustee].expValue);\n\t\t\tFeExInfo[_trustor][_trustee].prev_expValue = FeExInfo[_trustor][_trustee].expValue;\n\t\t\tFeExInfo[_trustor][_trustee].expValue = updatedExpValue;\n\t\t}\n\t\tif (_fbscore <= 512) { //un-cooperative feedback\n\t\t\t// decrease model\n\t\t\tupdatedExpValue = FeExInfo[_trustor][_trustee].expValue - (((1024-_fbscore)*4096)/1024)/(1048576 - FeExInfo[_trustor][_trustee].expValue);\n\t\t\tFeExInfo[_trustor][_trustee].prev_expValue = FeExInfo[_trustor][_trustee].expValue;\n\t\t\tFeExInfo[_trustor][_trustee].expValue = updatedExpValue;\n\t\t}\n\t\tif ((_fbscore > 512) && (_fbscore < 700)) { //decay\n\t\t\t// decay model\n\t\t\tupdatedExpValue = FeExInfo[_trustor][_trustee].expValue - (1024 - 1024*FeExInfo[_trustor][_trustee].prev_expValue/1048576);\n\t\t\tFeExInfo[_trustor][_trustee].prev_expValue = FeExInfo[_trustor][_trustee].expValue;\n\t\t\tFeExInfo[_trustor][_trustee].expValue = updatedExpValue;\n\t\t}\n\n\t\t//decrease the perCount by 1\n\t\tFeExInfo[_trustor][_trustee].perCount--;\n\n\t\t//trigger uploadData event\n\t\temit expCalculationEvent(_trustor, _trustee, updatedExpValue);\n  \t}\n\n}\n",
  "sourcePath": "/home/nguyentb/Workspace/DecentralisedTrust/Decentralised_Trust_Eth_IPFS/packages/ethereum-core/contracts/FeEx.sol",
  "compiler": {
    "name": "solc",
    "version": "0.5.1+commit.c8a2cb62.Emscripten.clang"
  },
  "schemaVersion": "3.3.3",
  "updatedAt": "2021-01-22T18:47:49.491Z",
  "networkType": "ethereum",
  "devdoc": {
    "methods": {}
  },
  "userdoc": {
    "methods": {}
  }
}