{
  "contractName": "Reputation",
  "abi": [
    {
      "constant": true,
      "inputs": [
        {
          "name": "",
          "type": "address"
        }
      ],
      "name": "RepPosInfo",
      "outputs": [
        {
          "name": "",
          "type": "uint256"
        }
      ],
      "payable": false,
      "stateMutability": "view",
      "type": "function"
    },
    {
      "constant": true,
      "inputs": [
        {
          "name": "",
          "type": "address"
        }
      ],
      "name": "RepNegInfo",
      "outputs": [
        {
          "name": "",
          "type": "uint256"
        }
      ],
      "payable": false,
      "stateMutability": "view",
      "type": "function"
    },
    {
      "inputs": [],
      "payable": false,
      "stateMutability": "nonpayable",
      "type": "constructor"
    },
    {
      "anonymous": false,
      "inputs": [
        {
          "indexed": false,
          "name": "description",
          "type": "string"
        }
      ],
      "name": "LogNewProvableQuery",
      "type": "event"
    },
    {
      "anonymous": false,
      "inputs": [
        {
          "indexed": false,
          "name": "result",
          "type": "string"
        }
      ],
      "name": "LogResult",
      "type": "event"
    },
    {
      "constant": false,
      "inputs": [
        {
          "name": "_myid",
          "type": "bytes32"
        },
        {
          "name": "_result",
          "type": "string"
        }
      ],
      "name": "__callback",
      "outputs": [],
      "payable": false,
      "stateMutability": "nonpayable",
      "type": "function"
    },
    {
      "constant": false,
      "inputs": [
        {
          "name": "_myid",
          "type": "bytes32"
        },
        {
          "name": "_result",
          "type": "string"
        },
        {
          "name": "_proof",
          "type": "bytes"
        }
      ],
      "name": "__callback",
      "outputs": [],
      "payable": false,
      "stateMutability": "nonpayable",
      "type": "function"
    },
    {
      "constant": false,
      "inputs": [
        {
          "name": "_query",
          "type": "string"
        },
        {
          "name": "_method",
          "type": "string"
        },
        {
          "name": "_url",
          "type": "string"
        },
        {
          "name": "_kwargs",
          "type": "string"
        }
      ],
      "name": "request",
      "outputs": [],
      "payable": true,
      "stateMutability": "payable",
      "type": "function"
    },
    {
      "constant": false,
      "inputs": [],
      "name": "requestCustomHeaders",
      "outputs": [],
      "payable": true,
      "stateMutability": "payable",
      "type": "function"
    },
    {
      "constant": false,
      "inputs": [],
      "name": "requestBasicAuth",
      "outputs": [],
      "payable": true,
      "stateMutability": "payable",
      "type": "function"
    },
    {
      "constant": false,
      "inputs": [],
      "name": "requestPost",
      "outputs": [],
      "payable": true,
      "stateMutability": "payable",
      "type": "function"
    },
    {
      "constant": false,
      "inputs": [],
      "name": "requestPut",
      "outputs": [],
      "payable": true,
      "stateMutability": "payable",
      "type": "function"
    },
    {
      "constant": false,
      "inputs": [],
      "name": "requestCookies",
      "outputs": [],
      "payable": true,
      "stateMutability": "payable",
      "type": "function"
    }
  ],
  "bytecode": "0x60806040523480156200001157600080fd5b506200007460017f01000000000000000000000000000000000000000000000000000000000000000260407f010000000000000000000000000000000000000000000000000000000000000002176200007a640100000000026401000000009004565b62000b81565b600073ffffffffffffffffffffffffffffffffffffffff16600160009054906101000a900473ffffffffffffffffffffffffffffffffffffffff1673ffffffffffffffffffffffffffffffffffffffff161480620001135750600062000111600160009054906101000a900473ffffffffffffffffffffffffffffffffffffffff1662000445640100000000026401000000009004565b145b15620001365762000134600062000450640100000000026401000000009004565b505b600160009054906101000a900473ffffffffffffffffffffffffffffffffffffffff1673ffffffffffffffffffffffffffffffffffffffff166338cc48316040518163ffffffff167c0100000000000000000000000000000000000000000000000000000000028152600401602060405180830381600087803b158015620001bd57600080fd5b505af1158015620001d2573d6000803e3d6000fd5b505050506040513d6020811015620001e957600080fd5b810190808051906020019092919050505073ffffffffffffffffffffffffffffffffffffffff166000809054906101000a900473ffffffffffffffffffffffffffffffffffffffff1673ffffffffffffffffffffffffffffffffffffffff161415156200035457600160009054906101000a900473ffffffffffffffffffffffffffffffffffffffff1673ffffffffffffffffffffffffffffffffffffffff166338cc48316040518163ffffffff167c0100000000000000000000000000000000000000000000000000000000028152600401602060405180830381600087803b158015620002d757600080fd5b505af1158015620002ec573d6000803e3d6000fd5b505050506040513d60208110156200030357600080fd5b81019080805190602001909291905050506000806101000a81548173ffffffffffffffffffffffffffffffffffffffff021916908373ffffffffffffffffffffffffffffffffffffffff1602179055505b6000809054906101000a900473ffffffffffffffffffffffffffffffffffffffff1673ffffffffffffffffffffffffffffffffffffffff1663688dcfd7826040518263ffffffff167c010000000000000000000000000000000000000000000000000000000002815260040180827effffffffffffffffffffffffffffffffffffffffffffffffffffffffffffff19167effffffffffffffffffffffffffffffffffffffffffffffffffffffffffffff19168152602001915050600060405180830381600087803b1580156200042957600080fd5b505af11580156200043e573d6000803e3d6000fd5b5050505050565b6000813b9050919050565b60006200046b62000472640100000000026401000000009004565b9050919050565b600080620004a3731d3b2638a7cc9f2cb3d298a3da7a90b67e5506ed62000445640100000000026401000000009004565b11156200055857731d3b2638a7cc9f2cb3d298a3da7a90b67e5506ed600160006101000a81548173ffffffffffffffffffffffffffffffffffffffff021916908373ffffffffffffffffffffffffffffffffffffffff1602179055506200054e6040805190810160405280600b81526020017f6574685f6d61696e6e657400000000000000000000000000000000000000000081525062000ab6640100000000026401000000009004565b6001905062000ab3565b60006200058873c03a2615d5efaf5f49f60b7bb6583eaec212fdf162000445640100000000026401000000009004565b11156200063d5773c03a2615d5efaf5f49f60b7bb6583eaec212fdf1600160006101000a81548173ffffffffffffffffffffffffffffffffffffffff021916908373ffffffffffffffffffffffffffffffffffffffff160217905550620006336040805190810160405280600c81526020017f6574685f726f707374656e33000000000000000000000000000000000000000081525062000ab6640100000000026401000000009004565b6001905062000ab3565b60006200066d73b7a07bcf2ba2f2703b24c0691b5278999c59ac7e62000445640100000000026401000000009004565b1115620007225773b7a07bcf2ba2f2703b24c0691b5278999c59ac7e600160006101000a81548173ffffffffffffffffffffffffffffffffffffffff021916908373ffffffffffffffffffffffffffffffffffffffff160217905550620007186040805190810160405280600981526020017f6574685f6b6f76616e000000000000000000000000000000000000000000000081525062000ab6640100000000026401000000009004565b6001905062000ab3565b60006200075273146500cfd35b22e4a392fe0adc06de1a1368ed4862000445640100000000026401000000009004565b1115620008075773146500cfd35b22e4a392fe0adc06de1a1368ed48600160006101000a81548173ffffffffffffffffffffffffffffffffffffffff021916908373ffffffffffffffffffffffffffffffffffffffff160217905550620007fd6040805190810160405280600b81526020017f6574685f72696e6b65627900000000000000000000000000000000000000000081525062000ab6640100000000026401000000009004565b6001905062000ab3565b60006200083773a2998efd205fb9d4b4963afb70778d6354ad3a4162000445640100000000026401000000009004565b1115620008ec5773a2998efd205fb9d4b4963afb70778d6354ad3a41600160006101000a81548173ffffffffffffffffffffffffffffffffffffffff021916908373ffffffffffffffffffffffffffffffffffffffff160217905550620008e26040805190810160405280600a81526020017f6574685f676f65726c690000000000000000000000000000000000000000000081525062000ab6640100000000026401000000009004565b6001905062000ab3565b60006200091c736f485c8bf6fc43ea212e93bbf8ce046c7f1cb47562000445640100000000026401000000009004565b11156200098257736f485c8bf6fc43ea212e93bbf8ce046c7f1cb475600160006101000a81548173ffffffffffffffffffffffffffffffffffffffff021916908373ffffffffffffffffffffffffffffffffffffffff1602179055506001905062000ab3565b6000620009b27320e12a1f859b3feae5fb2a0a32c18f5a65555bbf62000445640100000000026401000000009004565b111562000a18577320e12a1f859b3feae5fb2a0a32c18f5a65555bbf600160006101000a81548173ffffffffffffffffffffffffffffffffffffffff021916908373ffffffffffffffffffffffffffffffffffffffff1602179055506001905062000ab3565b600062000a487351efaf4c8b3c9afbd5ab9f4bbc82784ab6ef8faa62000445640100000000026401000000009004565b111562000aae577351efaf4c8b3c9afbd5ab9f4bbc82784ab6ef8faa600160006101000a81548173ffffffffffffffffffffffffffffffffffffffff021916908373ffffffffffffffffffffffffffffffffffffffff1602179055506001905062000ab3565b600090505b90565b806002908051906020019062000ace92919062000ad2565b5050565b828054600181600116156101000203166002900490600052602060002090601f016020900481019282601f1062000b1557805160ff191683800117855562000b46565b8280016001018555821562000b46579182015b8281111562000b4557825182559160200191906001019062000b28565b5b50905062000b55919062000b59565b5090565b62000b7e91905b8082111562000b7a57600081600090555060010162000b60565b5090565b90565b612ba58062000b916000396000f3fe60806040526004361061009e576000357c01000000000000000000000000000000000000000000000000000000009004806307bfd392146100a357806318bdfdf41461010857806327dc297e1461011257806338bbfa50146101e45780635d6266f21461034d57806366c7a1d6146103b257806386eb72ce146103bc578063996e83d6146103c6578063cb300785146103d0578063de6e1da514610650575b600080fd5b3480156100af57600080fd5b506100f2600480360360208110156100c657600080fd5b81019080803573ffffffffffffffffffffffffffffffffffffffff16906020019092919050505061065a565b6040518082815260200191505060405180910390f35b610110610672565b005b34801561011e57600080fd5b506101e26004803603604081101561013557600080fd5b81019080803590602001909291908035906020019064010000000081111561015c57600080fd5b82018360208201111561016e57600080fd5b8035906020019184600183028401116401000000008311171561019057600080fd5b91908080601f016020809104026020016040519081016040528093929190818152602001838380828437600081840152601f19601f8201169050808301925050505050505091929192905050506107a2565b005b3480156101f057600080fd5b5061034b6004803603606081101561020757600080fd5b81019080803590602001909291908035906020019064010000000081111561022e57600080fd5b82018360208201111561024057600080fd5b8035906020019184600183028401116401000000008311171561026257600080fd5b91908080601f016020809104026020016040519081016040528093929190818152602001838380828437600081840152601f19601f820116905080830192505050505050509192919290803590602001906401000000008111156102c557600080fd5b8201836020820111156102d757600080fd5b803590602001918460018302840111640100000000831117156102f957600080fd5b91908080601f016020809104026020016040519081016040528093929190818152602001838380828437600081840152601f19601f8201169050808301925050505050505091929192905050506107e5565b005b34801561035957600080fd5b5061039c6004803603602081101561037057600080fd5b81019080803573ffffffffffffffffffffffffffffffffffffffff1690602001909291905050506108c7565b6040518082815260200191505060405180910390f35b6103ba6108df565b005b6103c4610a0f565b005b6103ce610b66565b005b61064e600480360360808110156103e657600080fd5b810190808035906020019064010000000081111561040357600080fd5b82018360208201111561041557600080fd5b8035906020019184600183028401116401000000008311171561043757600080fd5b91908080601f016020809104026020016040519081016040528093929190818152602001838380828437600081840152601f19601f8201169050808301925050505050505091929192908035906020019064010000000081111561049a57600080fd5b8201836020820111156104ac57600080fd5b803590602001918460018302840111640100000000831117156104ce57600080fd5b91908080601f016020809104026020016040519081016040528093929190818152602001838380828437600081840152601f19601f8201169050808301925050505050505091929192908035906020019064010000000081111561053157600080fd5b82018360208201111561054357600080fd5b8035906020019184600183028401116401000000008311171561056557600080fd5b91908080601f016020809104026020016040519081016040528093929190818152602001838380828437600081840152601f19601f820116905080830192505050505050509192919290803590602001906401000000008111156105c857600080fd5b8201836020820111156105da57600080fd5b803590602001918460018302840111640100000000831117156105fc57600080fd5b91908080601f016020809104026020016040519081016040528093929190818152602001838380828437600081840152601f19601f820116905080830192505050505050509192919290505050610ce3565b005b610658610eee565b005b60056020528060005260406000206000915090505481565b6107a0606060405190810160405280602e81526020017f516d644b4b333139566568613833683641596751716878395952734a394d4a4581526020017f377933336f4358795a344d7148450000000000000000000000000000000000008152506040805190810160405280600381526020017f50555400000000000000000000000000000000000000000000000000000000008152506040805190810160405280601b81526020017f687474703a2f2f6874747062696e2e6f72672f616e797468696e670000000000815250606060405190810160405280602181526020017f7b276a736f6e27203a207b2774657374696e67273a27697420776f726b73277d81526020017f7d00000000000000000000000000000000000000000000000000000000000000815250610ce3565b565b6107e1828260006040519080825280601f01601f1916602001820160405280156107db5781602001600182028038833980820191505090505b506107e5565b5050565b6107ed61101e565b73ffffffffffffffffffffffffffffffffffffffff163373ffffffffffffffffffffffffffffffffffffffff1614151561082657600080fd5b7fa25f2099919c7f026f9326edd9b612739f6ef899978c6aa38ba12db0b7830cf7826040518080602001828103825283818151815260200191508051906020019080838360005b8381101561088857808201518184015260208101905061086d565b50505050905090810190601f1680156108b55780820380516001836020036101000a031916815260200191505b509250505060405180910390a1505050565b60066020528060005260406000206000915090505481565b610a0d606060405190810160405280603c81526020017f6a736f6e28516d644b4b3331395665686138336836415967517168783959527381526020017f4a394d4a45377933336f4358795a344d714845292e68656164657273000000008152506040805190810160405280600381526020017f47455400000000000000000000000000000000000000000000000000000000008152506040805190810160405280601a81526020017f687474703a2f2f6874747062696e2e6f72672f68656164657273000000000000815250606060405190810160405280602581526020017f7b2768656164657273273a207b27636f6e74656e742d74797065273a20276a7381526020017f6f6e277d7d000000000000000000000000000000000000000000000000000000815250610ce3565b565b610b64606060405190810160405280602e81526020017f516d644b4b333139566568613833683641596751716878395952734a394d4a4581526020017f377933336f4358795a344d7148450000000000000000000000000000000000008152506040805190810160405280600481526020017f504f535400000000000000000000000000000000000000000000000000000000815250606060405190810160405280602281526020017f68747470733a2f2f6170692e706f7374636f6465732e696f2f706f7374636f6481526020017f6573000000000000000000000000000000000000000000000000000000000000815250606060405190810160405280602681526020017f7b226a736f6e223a207b22706f7374636f64657322203a205b224f583439203581526020017f4e55225d7d7d0000000000000000000000000000000000000000000000000000815250610ce3565b565b610ce1606060405190810160405280602e81526020017f516d644b4b333139566568613833683641596751716878395952734a394d4a4581526020017f377933336f4358795a344d7148450000000000000000000000000000000000008152506040805190810160405280600381526020017f4745540000000000000000000000000000000000000000000000000000000000815250606060405190810160405280602f81526020017f687474703a2f2f6874747062696e2e6f72672f62617369632d617574682f6d7981526020017f757365722f736563726574706173730000000000000000000000000000000000815250608060405190810160405280604681526020017f7b2761757468273a2028276d7975736572272c2773656372657470617373272981526020017f2c202768656164657273273a207b27636f6e74656e742d74797065273a20276a81526020017f736f6e277d7d0000000000000000000000000000000000000000000000000000815250610ce3565b565b3073ffffffffffffffffffffffffffffffffffffffff1631610d396040805190810160405280600b81526020017f636f6d7075746174696f6e000000000000000000000000000000000000000000815250611391565b1115610df8577fc4dc360d0a9c0677a3379ae0a3d81e887f761e65fdf3d7e00859d1bcd3c4738960405180806020018281038252604b8152602001807f50726f7661626c6520717565727920776173204e4f542073656e742c20706c6581526020017f6173652061646420736f6d652045544820746f20636f76657220666f7220746881526020017f652071756572792066656500000000000000000000000000000000000000000081525060600191505060405180910390a1610ee8565b7fc4dc360d0a9c0677a3379ae0a3d81e887f761e65fdf3d7e00859d1bcd3c473896040518080602001828103825260368152602001807f50726f7661626c65207175657279207761732073656e742c207374616e64696e81526020017f6720627920666f722074686520616e737765722e2e2e0000000000000000000081525060400191505060405180910390a1610ee66040805190810160405280600b81526020017f636f6d7075746174696f6e00000000000000000000000000000000000000000081525060806040519081016040528087815260200186815260200185815260200184815250611778565b505b50505050565b61101c606060405190810160405280602e81526020017f516d644b4b333139566568613833683641596751716878395952734a394d4a4581526020017f377933336f4358795a344d7148450000000000000000000000000000000000008152506040805190810160405280600381526020017f47455400000000000000000000000000000000000000000000000000000000008152506040805190810160405280601a81526020017f687474703a2f2f6874747062696e2e6f72672f636f6f6b696573000000000000815250606060405190810160405280603d81526020017f7b27636f6f6b69657327203a207b2774686973636f6f6b6965273a2773686f7581526020017f6c6420626520736176656420616e642076697369626c65203a29277d7d000000815250610ce3565b565b60008073ffffffffffffffffffffffffffffffffffffffff16600160009054906101000a900473ffffffffffffffffffffffffffffffffffffffff1673ffffffffffffffffffffffffffffffffffffffff1614806110a6575060006110a4600160009054906101000a900473ffffffffffffffffffffffffffffffffffffffff16611b35565b145b156110b7576110b56000611b40565b505b600160009054906101000a900473ffffffffffffffffffffffffffffffffffffffff1673ffffffffffffffffffffffffffffffffffffffff166338cc48316040518163ffffffff167c0100000000000000000000000000000000000000000000000000000000028152600401602060405180830381600087803b15801561113d57600080fd5b505af1158015611151573d6000803e3d6000fd5b505050506040513d602081101561116757600080fd5b810190808051906020019092919050505073ffffffffffffffffffffffffffffffffffffffff166000809054906101000a900473ffffffffffffffffffffffffffffffffffffffff1673ffffffffffffffffffffffffffffffffffffffff161415156112ce57600160009054906101000a900473ffffffffffffffffffffffffffffffffffffffff1673ffffffffffffffffffffffffffffffffffffffff166338cc48316040518163ffffffff167c0100000000000000000000000000000000000000000000000000000000028152600401602060405180830381600087803b15801561125357600080fd5b505af1158015611267573d6000803e3d6000fd5b505050506040513d602081101561127d57600080fd5b81019080805190602001909291905050506000806101000a81548173ffffffffffffffffffffffffffffffffffffffff021916908373ffffffffffffffffffffffffffffffffffffffff1602179055505b6000809054906101000a900473ffffffffffffffffffffffffffffffffffffffff1673ffffffffffffffffffffffffffffffffffffffff1663c281d19e6040518163ffffffff167c010000000000000000000000000000000000000000000000000000000002815260040160206040518083038186803b15801561135157600080fd5b505afa158015611365573d6000803e3d6000fd5b505050506040513d602081101561137b57600080fd5b8101908080519060200190929190505050905090565b60008073ffffffffffffffffffffffffffffffffffffffff16600160009054906101000a900473ffffffffffffffffffffffffffffffffffffffff1673ffffffffffffffffffffffffffffffffffffffff16148061141957506000611417600160009054906101000a900473ffffffffffffffffffffffffffffffffffffffff16611b35565b145b1561142a576114286000611b40565b505b600160009054906101000a900473ffffffffffffffffffffffffffffffffffffffff1673ffffffffffffffffffffffffffffffffffffffff166338cc48316040518163ffffffff167c0100000000000000000000000000000000000000000000000000000000028152600401602060405180830381600087803b1580156114b057600080fd5b505af11580156114c4573d6000803e3d6000fd5b505050506040513d60208110156114da57600080fd5b810190808051906020019092919050505073ffffffffffffffffffffffffffffffffffffffff166000809054906101000a900473ffffffffffffffffffffffffffffffffffffffff1673ffffffffffffffffffffffffffffffffffffffff1614151561164157600160009054906101000a900473ffffffffffffffffffffffffffffffffffffffff1673ffffffffffffffffffffffffffffffffffffffff166338cc48316040518163ffffffff167c0100000000000000000000000000000000000000000000000000000000028152600401602060405180830381600087803b1580156115c657600080fd5b505af11580156115da573d6000803e3d6000fd5b505050506040513d60208110156115f057600080fd5b81019080805190602001909291905050506000806101000a81548173ffffffffffffffffffffffffffffffffffffffff021916908373ffffffffffffffffffffffffffffffffffffffff1602179055505b6000809054906101000a900473ffffffffffffffffffffffffffffffffffffffff1673ffffffffffffffffffffffffffffffffffffffff1663524f3889836040518263ffffffff167c01000000000000000000000000000000000000000000000000000000000281526004018080602001828103825283818151815260200191508051906020019080838360005b838110156116ea5780820151818401526020810190506116cf565b50505050905090810190601f1680156117175780820380516001836020036101000a031916815260200191505b5092505050602060405180830381600087803b15801561173657600080fd5b505af115801561174a573d6000803e3d6000fd5b505050506040513d602081101561176057600080fd5b81019080805190602001909291905050509050919050565b60008073ffffffffffffffffffffffffffffffffffffffff16600160009054906101000a900473ffffffffffffffffffffffffffffffffffffffff1673ffffffffffffffffffffffffffffffffffffffff161480611800575060006117fe600160009054906101000a900473ffffffffffffffffffffffffffffffffffffffff16611b35565b145b156118115761180f6000611b40565b505b600160009054906101000a900473ffffffffffffffffffffffffffffffffffffffff1673ffffffffffffffffffffffffffffffffffffffff166338cc48316040518163ffffffff167c0100000000000000000000000000000000000000000000000000000000028152600401602060405180830381600087803b15801561189757600080fd5b505af11580156118ab573d6000803e3d6000fd5b505050506040513d60208110156118c157600080fd5b810190808051906020019092919050505073ffffffffffffffffffffffffffffffffffffffff166000809054906101000a900473ffffffffffffffffffffffffffffffffffffffff1673ffffffffffffffffffffffffffffffffffffffff16141515611a2857600160009054906101000a900473ffffffffffffffffffffffffffffffffffffffff1673ffffffffffffffffffffffffffffffffffffffff166338cc48316040518163ffffffff167c0100000000000000000000000000000000000000000000000000000000028152600401602060405180830381600087803b1580156119ad57600080fd5b505af11580156119c1573d6000803e3d6000fd5b505050506040513d60208110156119d757600080fd5b81019080805190602001909291905050506000806101000a81548173ffffffffffffffffffffffffffffffffffffffff021916908373ffffffffffffffffffffffffffffffffffffffff1602179055505b60606004604051908082528060200260200182016040528015611a5f57816020015b6060815260200190600190039081611a4a5790505b509050826000600481101515611a7157fe5b6020020151816000815181101515611a8557fe5b90602001906020020181905250826001600481101515611aa157fe5b6020020151816001815181101515611ab557fe5b90602001906020020181905250826002600481101515611ad157fe5b6020020151816002815181101515611ae557fe5b90602001906020020181905250826003600481101515611b0157fe5b6020020151816003815181101515611b1557fe5b90602001906020020181905250611b2c8482611b51565b91505092915050565b6000813b9050919050565b6000611b4a612118565b9050919050565b60008073ffffffffffffffffffffffffffffffffffffffff16600160009054906101000a900473ffffffffffffffffffffffffffffffffffffffff1673ffffffffffffffffffffffffffffffffffffffff161480611bd957506000611bd7600160009054906101000a900473ffffffffffffffffffffffffffffffffffffffff16611b35565b145b15611bea57611be86000611b40565b505b600160009054906101000a900473ffffffffffffffffffffffffffffffffffffffff1673ffffffffffffffffffffffffffffffffffffffff166338cc48316040518163ffffffff167c0100000000000000000000000000000000000000000000000000000000028152600401602060405180830381600087803b158015611c7057600080fd5b505af1158015611c84573d6000803e3d6000fd5b505050506040513d6020811015611c9a57600080fd5b810190808051906020019092919050505073ffffffffffffffffffffffffffffffffffffffff166000809054906101000a900473ffffffffffffffffffffffffffffffffffffffff1673ffffffffffffffffffffffffffffffffffffffff16141515611e0157600160009054906101000a900473ffffffffffffffffffffffffffffffffffffffff1673ffffffffffffffffffffffffffffffffffffffff166338cc48316040518163ffffffff167c0100000000000000000000000000000000000000000000000000000000028152600401602060405180830381600087803b158015611d8657600080fd5b505af1158015611d9a573d6000803e3d6000fd5b505050506040513d6020811015611db057600080fd5b81019080805190602001909291905050506000806101000a81548173ffffffffffffffffffffffffffffffffffffffff021916908373ffffffffffffffffffffffffffffffffffffffff1602179055505b60008060009054906101000a900473ffffffffffffffffffffffffffffffffffffffff1673ffffffffffffffffffffffffffffffffffffffff1663524f3889856040518263ffffffff167c01000000000000000000000000000000000000000000000000000000000281526004018080602001828103825283818151815260200191508051906020019080838360005b83811015611eac578082015181840152602081019050611e91565b50505050905090810190601f168015611ed95780820380516001836020036101000a031916815260200191505b5092505050602060405180830381600087803b158015611ef857600080fd5b505af1158015611f0c573d6000803e3d6000fd5b505050506040513d6020811015611f2257600080fd5b8101908080519060200190929190505050905062030d403a02670de0b6b3a764000001811115611f59576000600102915050612112565b6060611f648461266f565b90506000809054906101000a900473ffffffffffffffffffffffffffffffffffffffff1673ffffffffffffffffffffffffffffffffffffffff166383eed3d583600088856040518563ffffffff167c0100000000000000000000000000000000000000000000000000000000028152600401808481526020018060200180602001838103835285818151815260200191508051906020019080838360005b8381101561201d578082015181840152602081019050612002565b50505050905090810190601f16801561204a5780820380516001836020036101000a031916815260200191505b50838103825284818151815260200191508051906020019080838360005b83811015612083578082015181840152602081019050612068565b50505050905090810190601f1680156120b05780820380516001836020036101000a031916815260200191505b50955050505050506020604051808303818588803b1580156120d157600080fd5b505af11580156120e5573d6000803e3d6000fd5b50505050506040513d60208110156120fc57600080fd5b8101908080519060200190929190505050925050505b92915050565b600080612138731d3b2638a7cc9f2cb3d298a3da7a90b67e5506ed611b35565b11156121da57731d3b2638a7cc9f2cb3d298a3da7a90b67e5506ed600160006101000a81548173ffffffffffffffffffffffffffffffffffffffff021916908373ffffffffffffffffffffffffffffffffffffffff1602179055506121d16040805190810160405280600b81526020017f6574685f6d61696e6e65740000000000000000000000000000000000000000008152506126f3565b6001905061266c565b60006121f973c03a2615d5efaf5f49f60b7bb6583eaec212fdf1611b35565b111561229b5773c03a2615d5efaf5f49f60b7bb6583eaec212fdf1600160006101000a81548173ffffffffffffffffffffffffffffffffffffffff021916908373ffffffffffffffffffffffffffffffffffffffff1602179055506122926040805190810160405280600c81526020017f6574685f726f707374656e3300000000000000000000000000000000000000008152506126f3565b6001905061266c565b60006122ba73b7a07bcf2ba2f2703b24c0691b5278999c59ac7e611b35565b111561235c5773b7a07bcf2ba2f2703b24c0691b5278999c59ac7e600160006101000a81548173ffffffffffffffffffffffffffffffffffffffff021916908373ffffffffffffffffffffffffffffffffffffffff1602179055506123536040805190810160405280600981526020017f6574685f6b6f76616e00000000000000000000000000000000000000000000008152506126f3565b6001905061266c565b600061237b73146500cfd35b22e4a392fe0adc06de1a1368ed48611b35565b111561241d5773146500cfd35b22e4a392fe0adc06de1a1368ed48600160006101000a81548173ffffffffffffffffffffffffffffffffffffffff021916908373ffffffffffffffffffffffffffffffffffffffff1602179055506124146040805190810160405280600b81526020017f6574685f72696e6b6562790000000000000000000000000000000000000000008152506126f3565b6001905061266c565b600061243c73a2998efd205fb9d4b4963afb70778d6354ad3a41611b35565b11156124de5773a2998efd205fb9d4b4963afb70778d6354ad3a41600160006101000a81548173ffffffffffffffffffffffffffffffffffffffff021916908373ffffffffffffffffffffffffffffffffffffffff1602179055506124d56040805190810160405280600a81526020017f6574685f676f65726c69000000000000000000000000000000000000000000008152506126f3565b6001905061266c565b60006124fd736f485c8bf6fc43ea212e93bbf8ce046c7f1cb475611b35565b111561256157736f485c8bf6fc43ea212e93bbf8ce046c7f1cb475600160006101000a81548173ffffffffffffffffffffffffffffffffffffffff021916908373ffffffffffffffffffffffffffffffffffffffff1602179055506001905061266c565b60006125807320e12a1f859b3feae5fb2a0a32c18f5a65555bbf611b35565b11156125e4577320e12a1f859b3feae5fb2a0a32c18f5a65555bbf600160006101000a81548173ffffffffffffffffffffffffffffffffffffffff021916908373ffffffffffffffffffffffffffffffffffffffff1602179055506001905061266c565b60006126037351efaf4c8b3c9afbd5ab9f4bbc82784ab6ef8faa611b35565b1115612667577351efaf4c8b3c9afbd5ab9f4bbc82784ab6ef8faa600160006101000a81548173ffffffffffffffffffffffffffffffffffffffff021916908373ffffffffffffffffffffffffffffffffffffffff1602179055506001905061266c565b600090505b90565b606061267961270d565b612681612aba565b61268d81610400612719565b61269681612769565b60008090505b83518110156126dc576126cf84828151811015156126b657fe5b906020019060200201518361277790919063ffffffff16565b808060010191505061269c565b506126e68161279c565b8060000151915050919050565b8060029080519060200190612709929190612ad4565b5050565b60405180590338823950565b6000819050600060208281151561272c57fe5b061415156127495760208181151561274057fe5b06602003810190505b808360200181815250506040518084526000815281810160405250505050565b6127748160046127aa565b50565b61278482600383516127ce565b612797818361292790919063ffffffff16565b505050565b6127a78160076127aa565b50565b6127ca601f60058360ff169060020a0217836129d490919063ffffffff16565b5050565b6017811115156127ff576127fa8160058460ff169060020a0260ff1617846129d490919063ffffffff16565b612922565b60ff8111151561284557612829601860058460ff169060020a0217846129d490919063ffffffff16565b61283f81600185612a149092919063ffffffff16565b50612921565b61ffff8111151561288c57612870601960058460ff169060020a0217846129d490919063ffffffff16565b61288681600285612a149092919063ffffffff16565b50612920565b63ffffffff811115156128d5576128b9601a60058460ff169060020a0217846129d490919063ffffffff16565b6128cf81600485612a149092919063ffffffff16565b5061291f565b67ffffffffffffffff8111151561291e57612906601b60058460ff169060020a0217846129d490919063ffffffff16565b61291c81600885612a149092919063ffffffff16565b505b5b5b5b5b505050565b61292f612aba565b8260200151836000015151835101111561295f5761295e83600261295886602001518651612a7b565b02612a97565b5b60008060008451905085518051602081830101945086518101825260208701935050505b6020811015156129a85781518352602083019250602082019150602081039050612983565b60006001826020036101000a039050801983511681855116818117865250508694505050505092915050565b816020015160018360000151510111156129fa576129f9826002846020015102612a97565b5b815180516020818301018381536001820183525050505050565b612a1c612aba565b836020015184600001515183011115612a4a57612a49846002612a43876020015186612a7b565b02612a97565b5b60006001836101000a0390508451805184818301018684198251161781528582018352505050849150509392505050565b600081831115612a8d57829050612a91565b8190505b92915050565b606082600001519050612aaa8383612719565b612ab48382612927565b50505050565b604080519081016040528060608152602001600081525090565b828054600181600116156101000203166002900490600052602060002090601f016020900481019282601f10612b1557805160ff1916838001178555612b43565b82800160010185558215612b43579182015b82811115612b42578251825591602001919060010190612b27565b5b509050612b509190612b54565b5090565b612b7691905b80821115612b72576000816000905550600101612b5a565b5090565b9056fea165627a7a72305820865082c517f7f2bc59ca8e298e3dfe1baaf38555626e720492a4b538c58d2ca80029",
  "source": "pragma solidity >= 0.5.0 < 0.6.0;\nimport \"./provableAPI.sol\";\n\ncontract Reputation is usingProvable {\n    mapping (address => uint) public RepPosInfo;\n    mapping (address => uint) public RepNegInfo;\n\n    event LogNewProvableQuery(string description);\n    event LogResult(string result);\n\n    constructor()\n        public\n    {\n        provable_setProof(proofType_Android | proofStorage_IPFS);\n    }\n\n    // callback function for Oraclize getting results from the APIs. Update the ledger accordingly\n    function __callback(\n        bytes32 _myid,\n        string memory _result,\n        bytes memory _proof\n    )\n        public\n    {\n        require(msg.sender == provable_cbAddress());        \n        emit LogResult(_result);\n\n        // update RepPosInfo & RepNegInfo\n        //RepPosInfo[addr] = getRepPos(_result, addr);\n        //RepPosInfo[addr] = getRepNeg(_result, addr);\n    }\n\n    // request result of Reputation from outside world (by calling APIs) using Oracalize    \n    function request(\n        string memory _query,\n        string memory _method,\n        string memory _url,\n        string memory _kwargs\n    )\n        public\n        payable\n    {\n        if (provable_getPrice(\"computation\") > address(this).balance) {\n            emit LogNewProvableQuery(\"Provable query was NOT sent, please add some ETH to cover for the query fee\");\n        } else {\n            emit LogNewProvableQuery(\"Provable query was sent, standing by for the answer...\");\n            provable_query(\"computation\",\n                [_query,\n                _method,\n                _url,\n                _kwargs]\n            );\n        }\n    }\n    /**\n     * @dev Sends a custom content-type in header and returns the header used\n     * as result. Wrap first argument of computation ds with helper needed,\n     * such as json in this case\n     */\n    function requestCustomHeaders()\n        public\n        payable\n    {\n        request(\"json(QmdKK319Veha83h6AYgQqhx9YRsJ9MJE7y33oCXyZ4MqHE).headers\",\n                \"GET\",\n                \"http://httpbin.org/headers\",\n                \"{'headers': {'content-type': 'json'}}\"\n                );\n    }\n\n    function requestBasicAuth()\n        public\n        payable\n    {\n        request(\"QmdKK319Veha83h6AYgQqhx9YRsJ9MJE7y33oCXyZ4MqHE\",\n                \"GET\",\n                \"http://httpbin.org/basic-auth/myuser/secretpass\",\n                \"{'auth': ('myuser','secretpass'), 'headers': {'content-type': 'json'}}\"\n                );\n    }\n\n    function requestPost()\n        public\n        payable\n    {\n        request(\"QmdKK319Veha83h6AYgQqhx9YRsJ9MJE7y33oCXyZ4MqHE\",\n                \"POST\",\n                \"https://api.postcodes.io/postcodes\",\n                '{\"json\": {\"postcodes\" : [\"OX49 5NU\"]}}'\n                );\n    }\n\n    function requestPut()\n        public\n        payable\n    {\n        request(\"QmdKK319Veha83h6AYgQqhx9YRsJ9MJE7y33oCXyZ4MqHE\",\n                \"PUT\",\n                \"http://httpbin.org/anything\",\n                \"{'json' : {'testing':'it works'}}\"\n                );\n    }\n\n    function requestCookies()\n        public\n        payable\n    {\n        request(\"QmdKK319Veha83h6AYgQqhx9YRsJ9MJE7y33oCXyZ4MqHE\",\n                \"GET\",\n                \"http://httpbin.org/cookies\",\n                \"{'cookies' : {'thiscookie':'should be saved and visible :)'}}\"\n                );\n    }\n\n}\n",
  "sourcePath": "/home/nguyentb/Workspace/DecentralisedTrust/Decentralised_Trust_Eth_IPFS/packages/ethereum-core/contracts/Reputation.sol",
  "compiler": {
    "name": "solc",
    "version": "0.5.1+commit.c8a2cb62.Emscripten.clang"
  },
  "schemaVersion": "3.3.3",
  "updatedAt": "2021-01-22T19:32:37.726Z",
  "networkType": "ethereum",
  "devdoc": {
    "methods": {
      "__callback(bytes32,string)": {
        "details": "The following `__callback` functions are just placeholders ideally     meant to be defined in child contract when proofs are used.     The function bodies simply silence compiler warnings."
      },
      "requestCustomHeaders()": {
        "details": "Sends a custom content-type in header and returns the header used as result. Wrap first argument of computation ds with helper needed, such as json in this case"
      }
    }
  },
  "userdoc": {
    "methods": {}
  }
}